:100000000214725391CF4392302222020B85E4F501
:10001000C7F5C5F5C675C380F5C4220225C31227EE
:10002000DCAE568F56122666AF0622022087F4F504
:0A00300093AF04AE071FEE70FA2232
:10003B000224BEE709F608DFFA8046E709F208DF7B
:10004B00FA803E88828C83E709F0A3DFFA8032E3E3
:10005B0009F608DFFA8078E309F208DFFA80708886
:10006B00828C83E309F0A3DFFA806489828A83E0C0
:10007B00A3F608DFFA805889828A83E0A3F208DFAF
:10008B00FA804C80D280FA80C680D4806980F2805E
:10009B0033801080A680EA809A80A880DA80E28084
:1000AB00CA803389828A83ECFAE493A3C8C582C8D9
:1000BB00CCC583CCF0A3C8C582C8CCC583CCDFE943
:1000CB00DEE7800D89828A83E493A3F608DFF9ECDF
:1000DB00FAA9F0EDFB2289828A83ECFAE0A3C8C56A
:1000EB0082C8CCC583CCF0A3C8C582C8CCC583CC91
:1000FB00DFEADEE880DB89828A83E493A3F208DF00
:10010B00F980CC88F0EF60010E4E60C388F0ED24CF
:10011B0002B4040050B9F582EB2402B4040050AFD2
:10012B00232345822390008E73C2D530F707B2D5B7
:10013B0063F0FF05F030E70CB2D5F4048463F0FFF5
:10014B0005F080018430D502F40422BB01068982BC
:10015B008A83E0225002E722BBFE02E32289828AD5
:10016B0083E49322BB010CE58229F582E5833AF502
:10017B0083E0225006E92582F8E622BBFE06E9253C
:10018B0082F8E222E58229F582E5833AF583E4934E
:10019B0022BB010989828A83F8E028F022500327C9
:1001AB00F722BBFE05F8E328F3228A838982F8E461
:1001BB00932822BB010689828A83F0225002F72200
:1001CB00BBFE01F322BB010A89828A83E0F5F0A30F
:1001DB00E022500687F009E71922BBFE07E3F5F092
:1001EB0009E3192289828A83E493F5F0740193223F
:1001FB00BB010789828A830205F5500B09C5F027DD
:10020B00F7C5F01937F722BBFE0D09F8E325F0F31C
:10021B00C5F019E338F322F889828A837401932598
:10022B00F0C5F0F8E4933822BB010A89828A83F087
:10023B00E5F0A3F0225006F709A7F01922BBFE0642
:10024B00F3E5F009F31922A42582F582E5F0358355
:10025B00F58322BB010789828A830206145005E9C4
:10026B00F802060BBBFE05E9F802061D89828A839C
:10027B000206268A838982E473E3F5F009E208B566
:10028B00F06D606B80F3E3F5F009E608B5F06060A4
:10029B005E80F387F009E608B5F054605280F4876E
:1002AB00F009E208B5F048604680F488828C8387B9
:1002BB00F009E0A3B5F038603680F488828C838730
:1002CB00F009E493A3B5F027602580F388828C8333
:1002DB00E3F5F009E0A3B5F016601480F388828C87
:1002EB0083E3F5F009E493A3B5F004600280F20216
:1002FB0003AF808580E7808E80D2803C8015806C38
:10030B00807E809B80B5808B80A1804F8070803AEF
:10031B000203BB89828A83ECFAE493F5F0A3C8C588
:10032B0082C8CCC583CCE493A3C8C582C8CCC58393
:10033B00CCB5F070606E80E189828A83E493F5F02E
:10034B00A3E208B5F05E605C80F289828A83E0F5F7
:10035B00F0A3E608B5F04D604B80F389828A83E009
:10036B00F5F0A3E208B5F03C603A80F389828A830A
:10037B00E493F5F0A3E608B5F02A602880F28053E9
:10038B0089828A83ECFAE493F5F0A3C8C582C8CCC2
:10039B00C583CCE0A3C8C582C8CCC583CCB5F0045B
:1003AB00600280E27FFFB5F0020F2240027F012244
:1003BB0089828A83ECFAE0F5F0A3C8C582C8CCC564
:1003CB0083CCE0A3C8C582C8CCC583CCB5F0D560BF
:1003DB00D380E389828A83ECFAE0F5F0A3C8C58267
:1003EB00C8CCC583CCE493A3C8C582C8CCC583CC89
:1003FB00B5F0B160AF80E288F0ED2402B404005098
:10040B00A3F582EB2402B4040050992323458223E5
:10041B009002FD73E3F5F009E208B5F06BDFF580B0
:10042B0067E3F5F009E608B5F05EDFF5805A87F073
:10043B0009E608B5F052DFF6804E87F009E208B501
:10044B00F046DFF6804288828C8387F009E0A3B503
:10045B00F036DFF6803288828C8387F009E493A331
:10046B00B5F025DFF5802188828C83E3F5F009E078
:10047B00A3B5F014DFF5801088828C83E3F5F009C7
:10048B00E493A3B5F002DFF402054E808780E98088
:10049B009080D4803E8015806E807E809D80B7805A
:1004AB008D80A380518074803C02055A89828A8397
:1004BB00ECFAE493F5F0A3C8C582C8CCC583CCE4B1
:1004CB0093A3C8C582C8CCC583CCB5F076DFE3DE79
:1004DB00E1807089828A83E493F5F0A3E208B5F09A
:1004EB0062DFF4805E89828A83E0F5F0A3E608B5CB
:1004FB00F051DFF5804D89828A83E0F5F0A3E208A5
:10050B00B5F040DFF5803C89828A83E493F5F0A354
:10051B00E608B5F02EDFF4802A8002805789828AA4
:10052B0083ECFAE493F5F0A3C8C582C8CCC583CCA1
:10053B00E0A3C8C582C8CCC583CCB5F006DFE4DE2A
:10054B00E280007FFFB5F0020F2240027F0122897B
:10055B00828A83ECFAE0F5F0A3C8C582C8CCC583C8
:10056B00CCE0A3C8C582C8CCC583CCB5F0D5DFE53C
:10057B00DEE380CF89828A83ECFAE0F5F0A3C8C56D
:10058B0082C8CCC583CCE493A3C8C582C8CCC58331
:10059B00CCB5F0AFDFE4DEE280A988F0EF60010EAE
:1005AB004E60ABED2402B404005098F582EB2402AC
:1005BB00B40400508E232345822390049673EF4E90
:1005CB006012EF60010EEDBB010B89828A83F0A3F1
:1005DB00DFFCDEFA2289F05007F709DFFCA9F022D5
:1005EB00BBFEFCF309DFFCA9F022C5F0F8A3E02861
:1005FB00F0C5F0F8E582158270021583E038F02221
:10060B00E6FB08E6FA08E6F922E0FBA3E0FAA3E032
:10061B00F922E2FB08E2FA08E2F922E493FB740107
:10062B0093FA740293F9228E248F25EF2407F52772
:10063B00E43EF526855428855529ED24FE700302EA
:10064B00079424FE700302071D147003020867143D
:10065B00700302080B1470030208F92406600302EE
:10066B00094012244FEF60030209438555828554DC
:10067B0083A3A3A3E0FEA3E04E700302094312265B
:10068B0083855582855483A3A3A3E0FEA3E08E54F8
:10069B00F555FF122453EF60137F0112001EE52561
:1006AB00240FF582E43524F5837401F0E555240F0E
:1006BB00F582E43554F583E0FBA3E0FAA3E0F9EA15
:1006CB00494B602A852782852683E0FEA3E0242000
:1006DB00FFE43EFEE555240FF582E43554F583A384
:1006EB00E0FAA3E0F5828A8312028202085C852776
:1006FB0082852683E0FEA3E02420FFE43EFE8555A1
:10070B0082855483E0FBA3E0FAA3E0F9121875028B
:10071B00085CE5552407F582E43554F583E0FBA32B
:10072B00E0FAA3E0F9EA494B700302094312269A57
:10073B00852782852683E0FEA3E024E0FFEE34FFCD
:10074B00FEE5552407F582E43554F583E0FBA3E081
:10075B00FAA3E0F912025E121875AA26A9277B01EB
:10076B007533027D407C0012151585278285268303
:10077B00EEF0A3EFF0E5552407F582E43554F5834D
:10078B00A3E0FAA3E0AE028070E5552405F582E400
:10079B003554F583E0FEA3E04E70030209431226A5
:1007AB009A852782852683E0FEA3E02420FFE43E82
:1007BB00FEE5552405F582E43554F583E0FCA3E012
:1007CB00F5828C83E0FBA3E0FAA3E0F9121875AA7B
:1007DB0026A9277B01753D027D407C0012163E85C4
:1007EB002782852683EEF0A3EFF0E5552405F582ED
:1007FB00E43554F583E0FEA3E08E54F5550209432E
:10080B0012244FEF7003020943855582855483A34D
:10081B00A3A3E0FEA3E04E700302094312268385D7
:10082B005582855483A3A3A3E0FEA3E08E54F55514
:10083B00852782852683E0FEA3E02420FFE43EFE8D
:10084B00855582855483E0FBA3E0FAA3E0F91218E7
:10085B0075AA26A9277B01753D02807E12244FEFD6
:10086B007003020943122683755400755580AA261E
:10087B00A9277B01752F0F7530FF7531297532D57F
:10088B007D207C00120FCC852782852683EEF0A37A
:10089B00EFF0E555240FF582E43554F583E0FBA327
:1008AB00E0FAA3E0F9EA494B602785278285268386
:1008BB00E0FEA3E02420FFE43EFEE555240FF58285
:1008CB00E43554F583A3E0FAA3E0F5828A831202A0
:1008DB0082AA26A9277B01753D0F7D407C0012164D
:1008EB003E852782852683EEF0A3EFF0804A122403
:1008FB004FEF6044E525240EF582E43524F583E0C3
:10090B007036E525240EF582E43524F5837401F069
:10091B00E525240DFFE43524FAA9077B01752F008B
:10092B007530027F007E021220347F01121EDA1214
:10093B0026837F01227F0022E52965557004E52877
:10094B0065547F0060027F01228E248F258E268FB7
:10095B0027EF2407F529E43EF5288F828E83E58265
:10096B00240FF582E43583F583E0F52AE4F52BF5C6
:10097B002CFF12001EEF7003020B84AA26A9277B03
:10098B00011227BDEF6003020B8485278285268326
:10099B00E0FFB54F07E52A7003020B848F4FE52A62
:1009AB006019852982852883E4F0A3F0E525240FBF
:1009BB00F582E43524F583E4F0F552E55260030249
:1009CB000ACFAA26A9277B0112251AEF6011E5256C
:1009DB00240CF582E43524F583E07003122720857F
:1009EB002782852683A3A3E0FFB55104E52A604146
:1009FB008F51E55175F01012013424309000C7F07F
:100A0B00A37420F0E55175F010120134AFF0EF2410
:100A1B00309000C9F0A37420F0E4A3F07B017A00BE
:100A2B0079C7AF2CAE2B121875EF252CF52CEE8059
:100A3B0007740E252CF52CE4352BF52BE54F900088
:100A4B00C730E005745EF080037476F09000C874D4
:100A5B0020F0E4A3F07B017A0079C7AF2CAE2B1208
:100A6B001875EF252CF52CEE352BF52B852782856C
:100A7B002683A3E0FFB55004E52A603D8F50E55077
:100A8B0075F01012013424309000C7F0A37420F0DD
:100A9B00E55075F010120134AFF0EF24309000C91F
:100AAB00F0E4A3F07B017A0079C7AF2CAE2B1218C0
:100ABB0075EF252CF52CEE8007740D252CF52CE409
:100ACB00352BF52BE54F540FFFD364809482406296
:100ADB00EF64809485505BAF25AE24122794EF60B2
:100AEB0051E5526003020B841227DCAF25AE2412B2
:100AFB002794EF7003022666E5292404F582E4357A
:100B0B0028F583E0F52DE5292404F582E43528F555
:100B1B00837437F0AF2CAE2B1210B3AA28A9297B04
:100B2B0001753D017D407C0012163E12264D75521B
:100B3B000122E55260431227DCE5292404F582E407
:100B4B003528F583E0F52DE525240CF582E43524D5
:100B5B00F583E0700EE5292404F582E43528F5834E
:100B6B007437F0AA28A9297B017533017D407C00DD
:100B7B0012151512264DE4F55222C0E0C0F0C083C9
:100B8B00C082C0D075D0189000E5E0FF6401706D95
:100B9B00B2979000E2E004F09000E7E0FE9000E2F4
:100BAB00E0D39E4018E4F09000E4E060069000E68D
:100BBB00E004F0C28CD2979000E37401F09000E453
:100BCB00E07003020CC69000E3E07003020CC6E475
:100BDB00F09000E6E024FE601314601E2402600314
:100BEB00020CC6758A5D758CFD020C85758ABA750B
:100BFB008CFA9000E77432020CB8020CBDEF600364
:100C0B00020CC69000E6E0FF6401600CEF64036029
:100C1B0007EF64056002B2979000E2E004F09000E9
:100C2B00E7E0FF9000E2E0C39F4012E4F09000E6A3
:100C3B00E004F0C28CD2979000E37401F09000E3D3
:100C4B00E06078E4F09000E6E014B40700506C909C
:100C5B000C6875F003A4C58325F0C58373020C7D66
:100C6B00020C7F020C8C020C8E020C9B020CAD0250
:100C7B000CBD801C758A7C758CFC9000E7746480BD
:100C8B002C800D758A7C758CFC9000E77464801D3C
:100C9B00758A46758C249000E77419F0D297D28C24
:100CAB008019758A3E758CFE9000E774C8F0D28C63
:100CBB0080099000E6E4F09000E4F0D0D0D082D030
:100CCB0083D0F0D0E0328B458A468947754B0A7545
:100CDB004C10120156FFD3648094B9503EC3EF649D
:100CEB008094B04036EF3395E0FE90248475F0127B
:100CFB00EF120252EE75F012A42583AB48AA49A954
:100D0B004A8582F0120233AB45AA46A94712015617
:100D1B00FF3395E0FE902483020DB3C3E54B648053
:100D2B00F8E54C6480985003020DC7E54C954BA237
:100D3B00E713254BF54DAB45AA46A947120156FFC4
:100D4B00E54DFD3395E0FC9027E275F012ED1202B4
:100D5B0052EC75F012A42583F583E493FED3EF6474
:100D6B0080F8EE6480984007E54D14F54C80ACC3D9
:100D7B00EF6480F8EE6480985007E54D04F54B80E6
:100D8B009A9027E475F012ED120252EC75F012A452
:100D9B002583AB48AA49A94A8582F0120233AF4D8D
:100DAB00EF3395E0FE9027E375F012EF120252EE4F
:100DBB0075F012A42583F583E493FF22AB48AA496F
:100DCB00A94AE475F0011202337FFF227E297F14BA
:100DDB007528007529D874C86F700374296E602349
:100DEB00EFFD2424FFEEFC3400FEE529FB2402F585
:100DFB0029E528FA3400F5288B828A83ECF0A3EDE1
:100E0B00F080D3752400752501E52525E0FFE52449
:100E1B0033FE74D82FF58274003EF583E0FEA3E019
:100E2B008E2AF52BE52524FFF527E52434FFF5263F
:100E3B00C3E526648094804068AA2AA92B7BFFC057
:100E4B0002E52725E0FFE52633FE74D82FF58274E3
:100E5B00003EF583E0FEA3E0AA06F8AC027DFFD0CE
:100E6B00027E007F031205A5D3EF6480948040318E
:100E7B00E52725E0FFE52633FE74D82FF5827400B5
:100E8B003EF583E0FCA3E0FD74DA2FF58274003E9F
:100E9B00F583ECF0A3EDF0E527152770931526806D
:100EAB008FE52725E0FFE52633FE74DA2FF58274F4
:100EBB00003EF583E52AF0A3E52BF00525E525702B
:100ECB00020524640545246003020E14228E268F2E
:100EDB00278F828E83A3A3A3E0F5298F828E83E5D0
:100EEB00822407F582E43583F583E0FEA3E08E2AA6
:100EFB00F52B7B007A007928AF291227C8EF600306
:100F0B007F0022E52875F01012013475F00AA4FF5A
:100F1B00E52875F010120134AEF0EF2EF528852779
:100F2B0082852683E024FC60262402704D8527826F
:100F3B00852683A3E00528D36480F8E52864809890
:100F4B00402D852782852683A3A3E0F52880208565
:100F5B002782852683A3A3E01528C36480F8E528A0
:100F6B00648098500A852782852683A3E0F528AAFA
:100F7B002AA92B7B0112260C80037F0022E5287502
:100F8B00F00A120134C454F0FFE52875F00A12017F
:100F9B0034AEF0EF2EFDAF2912275C852B82852A0C
:100FAB0083E0FEA3E0FFE5272404F582E43526F574
:100FBB0083E0FBA3E0FAA3E0F9AD291216D07F0181
:100FCB00228C2D8D2E8B2A8A2B892C852D35852EC7
:100FDB00361201D0AEF0252EF52EEE352DF52DABBC
:100FEB0030AA31A93212015670030210A2754200C9
:100FFB007543007544331225468F37C3E53764803C
:10100B0094805013AF34EF3395E0FEEF2532F53279
:10101B00EE3531F53180C8E5377E00B410047F031F
:10102B0080027F01EF2532F532EE3531F531AA33EF
:10103B00A9347BFF853744AF2EAE2D122410EF253C
:10104B002EF52EE4352DF52DAF37EF3395E0FEEF72
:10105B002536F536EE3535F535D3E5369430E535B1
:10106B0094005003020FEAAB2AAA2BA92CE53624D5
:10107B00FFFDE53534FFFC852F3D12163EEF2401B5
:10108B00FFE43EAB2AAA2BA92C8FF0120233753545
:10109B0000753620020FEAAB2AAA2BA92C852F3D0F
:1010AB00AD36AC3512163E228E2E8F2F78CC7C00AF
:1010BB007D017BFF7A2979E27E007F0B12010E7591
:1010CB0032007533CD7537007538007539317B00BB
:1010DB007A007930121FE0EF601875370075380011
:1010EB007539317B007A007930121F8CEF60030267
:1010FB001188D3E530648094764051D3E530648019
:10110B0094894010E53075F00A12013424309000B8
:10111B00CDF08017C3E5306480948040089000CDFB
:10112B00747FF08006E530F404F530E53075F00A95
:10113B00120134AFF0EF24309000CFF0E53175F0B1
:10114B000A12013424309000D3F08031E530F404DE
:10115B00F5309000CD7420F0E53075F00A120134B3
:10116B0024309000D1F0E53075F00A120134AFF065
:10117B00EF24309000D3F07532007533CCAA32A92E
:10118B00337B01AF2FAE2E121875227E007F127D9E
:10119B00007B017A0079B51205C99000B574FFF098
:1011AB00A37429F0A374D0F09000BF7400F0A37463
:1011BB0092F09000C474FFF0A37417F0A3745FF067
:1011CB009000C174FFF0A37409F0A37454F07E0077
:1011DB007F127D007B017A0079801205C990008A0D
:1011EB007400F0A37492F09000837400F0A374A3C6
:1011FB00F090008F74FFF0A37427F0A374A5F09008
:10120B00008C74FFF0A3741EF0A3747BF07E007F40
:10121B00127D007B017A0079A31205C99000AD7491
:10122B0000F0A37492F07E007FB59000A6EEF0A3C1
:10123B00EFF09000B274FFF0A37427F0A374B1F039
:10124B009000AF74FFF0A3741EF0A37417F08E54CC
:10125B008F55227521007522991227DC1218F9126D
:10126B00233A12270B12000A1224871200031217BB
:10127B00EB120DD71211961227827F061225E81258
:10128B0026F512276F1226667B017A0079A21226A9
:10129B002DEF60297E007F929000A2E0FD120632B6
:1012AB008F23E52360177B017A0079A212262DEF9D
:1012BB00600BAA21A9227B01121A5280E5E5554544
:1012CB0054603FE555240CF582E43554F583E0FB7F
:1012DB00A3E0FAA3E0F9EA494B6027E555240AF5A8
:1012EB0082E43554F583E0FEA3E0FFE555240CF5CD
:1012FB0082E43554F583A3E0FAA3E0F5828A8312E6
:10130B0002821227DCAA21A9227B01121A52122671
:10131B0066021293AA07A802E6FF7803A2E713D886
:10132B00FBFEEF5407F548EA2404F8E6F549EA24F6
:10133B0003F8E6F54AAF06EF146029146045146014
:10134B00612403707CEA04F8E6FD854A4EAB49AF95
:10135B0048121CDDEA2402F8E6FD854A4EAB49AF84
:10136B0048021C71EA04F8E6FD854A4EAB49AF48CA
:10137B00121C05EA2402F8E6FD854A4EAB49AF483C
:10138B00021B99EA04F8E6FD854A4EAB49AF4812B9
:10139B001B2DEA2402F8E6FD854A4EAB49AF480205
:1013AB001DB0EA04F8E6FD854A4EAB49AF48121A68
:1013BB00C1EA2402F8E6FD854A4EAB49AF48121D3F
:1013CB004922AA07A802E6FF7803A2E713D8FBFE7F
:1013DB00EF5407F548EA2404F8E6F549EA2403F844
:1013EB00E6F9AF06EF14602714604114605B240329
:1013FB007074EA04F8E6FD894DAB49AF48122382BD
:10140B00EA2402F8E6FD894DAB49AF48022129EAEF
:10141B0004F8E6FD894DAB49AF481223C9EA240213
:10142B00F8E6FD894DAB49AF48022175EA04F8E6B1
:10143B00FD894DAB49AF481221C1EA2402F8E6FD04
:10144B00894DAB49AF4802220DEA04F8E6FD894D00
:10145B00AB49AF48122259EA2402F8E6FD894DAB9D
:10146B0049AF481222A522787FE4F6D8FD900100FF
:10147B007F027E07E4F0A3DFFCDEFA78007FFFE457
:10148B00F208DFFC75815B0214D002125EE493A3B9
:10149B00F8E493A34003F68001F208DFF48029E41B
:1014AB0093A3F85407240CC8C333C4540F4420C867
:1014BB00834004F456800146F6DFE4800B010204FE
:1014CB000810204080902571E47E019360BCA3FF3F
:1014DB00543F30E509541FFEE493A360010ECF5433
:1014EB00C025E060A840B8E493A3FAE493A3F8E422
:1014FB0093A3C8C582C8CAC583CAF0A3C8C582C88E
:10150B00CAC583CADFE9DEE780BE8C318D328B2EF4
:10151B008A2F89301201D0F53785F036D3E5329416
:10152B0040E5319400500BC3E5329420E531940033
:10153B005005AE36AF3722E4F534F535E53224E10C
:10154B00FFE53134FFFEC3E5359FE5349E502EE4B5
:10155B00F538E538C39533500DAB2EAA2FA93012B1
:10156B001A52053880ECAB2EAA2FA93074FFF5F078
:10157B001201FB0535E53570C3053480BFAB2EAAD0
:10158B002FA930E5368537F0120233E53224E0FF20
:10159B00E53134FFFEC3E5379FFFE5369EFE228B18
:1015AB00458A468947E4F54B754C04E54CC3954B8E
:1015BB004071E54C954BC313254BF54D25E024D8D5
:1015CB00F582E43400F583E0FEA3E0AA06F97BFF85
:1015DB00A847AC46AD457E007F031205A58F4ED3C1
:1015EB00E54E648094804007E54D04F54B80BCC309
:1015FB00E54E648094805007E54D14F54C80ACE5C6
:10160B004D25E024D8F582E43400F583E0FEA3E019
:10161B002404FFE43EAB48AA49A94A8FF0120233D7
:10162B007F1022AB48AA49A94AE475F00312023392
:10163B007FFF228C3B8D3C8B388A39893A1201D043
:10164B00F54185F040D3E53C9440E53B9400500BCD
:10165B00C3E53C9420E53B94005005AE40AF4122DE
:10166B00E4F53EF53FE53C24E1FFE53B34FFFEC3EB
:10167B00E53F9FE53E9E502EE4F542E542C3953D86
:10168B00500DAB38AA39A93A121A52054280ECAB6D
:10169B0038AA39A93AE475F0011201FB053FE53F81
:1016AB0070C3053E80BFAB38AA39A93AE5408541E6
:1016BB00F0120233E541253CCFE540353BCF24E02A
:1016CB00CF34FFFE228E2C8F2D8D2E8B2F8A3089BF
:1016DB0031852C33852D3478D07C007D017BFF7ACE
:1016EB002979ED7E007F0712010E7B007A0079329B
:1016FB00AF2E1227C8EF6004E4FEFF22E53275F02F
:10170B001012013424309000D2F0E53275F0101233
:10171B000134AFF0EF24309000D4F07B017A0079E4
:10172B00D0AF2DAE2C121875EF252DF52DEE352CD7
:10173B00F52CAB2FAA30A931AF2DFE121875EF2562
:10174B002DF52DEE352CF52CC3E52D9534FFE52C21
:10175B009533FE228E248F257B017A0079C71227C1
:10176B00BDEF6005AE24AF25229000C9E0FD75F0FA
:10177B001012013424309000CEF0A37420F0ED75DC
:10178B00F010120134AFF0EF24309000D0F0A374BE
:10179B0020F09000C7E09000D230E005745EF0803E
:1017AB00037476F09000D37420F09000C8E0FD75C0
:1017BB00F01012013424309000D4F0A37420F0ED1B
:1017CB0075F010120134AFF0EF24309000D6F0E436
:1017DB00A3F07B017A0079CEAF25AE2412187522C7
:1017EB007B007A0079247541017D0F7F681219E225
:1017FB00EF60037FFF22E52430E72C78257C007D0A
:10180B00007BFF7A2979F47E007F0712010E7B00A3
:10181B007A007925753207E4FD7F68121F37EF6078
:10182B00037FFF2253247F5324F77B007A00792414
:10183B007532017D0F7F68121F37EF60037FFF2228
:10184B007B007A0079247541017D0E7F681219E2C5
:10185B00EF60037FFF225324E37B007A007924752A
:10186B0032017D0E7F68121F37228E358F368B37F4
:10187B008A38893985353C85363DAB37AA38A93945
:10188B00120156605D75420075430075443A12258E
:10189B00468F3EC3E53E648094805013AF3BEF33DD
:1018AB0095E0FEEF2539F539EE3538F53880CBE587
:1018BB003E7E00B410047F0380027F01EF2539F5D3
:1018CB0039EE3538F538AA3AA93B7BFF853E44AF54
:1018DB0036AE35122410EF2536F536E43535F535B1
:1018EB008098C3E536953DFFE535953CFE227E009D
:1018FB007F117D007B017A0079921205C9E490007B
:10190B009CF07F002090027F0190009BEFF09000F5
:10191B00A17401F0FF12001EFB7A00799F7529005C
:10192B00752A027F007E021222F190009FE0D39471
:10193B00505006A3E09401401A90009F7450F0E4BD
:10194B00A3F07B017A00799FF52F753002FF7E02A1
:10195B001220349000A0E0FF121EDA90009FE0905E
:10196B00009DF0228F46E4F5477E00E546A8470828
:10197B008005C333CE33CED8F97F0020E7027F0139
:10198B00EF24FFB3929500D2947F057E001227348B
:10199B00C2940547C3E5476480948840CCE4F5487E
:1019AB00000548E548B403F8D295E4F5480005482E
:1019BB00E548B403F8D294E4F548000548E548B48B
:1019CB0004F87F002095027F01C294E4F5480005DE
:1019DB0048E548B402F8228F3C8D3D8B438A4489FD
:1019EB0045E53C25E0F53C1224EDAF3C12196FEFB9
:1019FB0070037FFF22AF3D12196FEF70037FFF2241
:101A0B001224EDE53C4401FF12196FEF70037FFFC9
:101A1B0022E4F542E542C3954150261220D9AB434F
:101A2B000545E545AA447002054414F9EF1201BEC1
:101A3B00E541147F00B542027F0112259C054280CF
:101A4B00D31226697F00221201D0543F25E02400D7
:101A5B00F54490000312016F785AF69000041201BE
:101A6B006F785BF690000212016F7BFF60067A13B2
:101A7B00791F80047A1379CD8B458A468947E4F523
:101A8B00437857A643AF440544A807E27858F6AF0E
:101A9B00440544A807E27859F67480B544037544AD
:101AAB00007F578547828546831202820543E543B3
:101ABB00C3942040CC22AC03A905C374079FFF74C9
:101ACB0001A807088002C333D8FCF4F5B0E4FD7419
:101ADB00017E00A805088005C333CE33CED8F9FFAD
:101AEB00E9FB3395E05EFEEF5B4E6026C374079D0A
:101AFB00FF7401A807088002C333D8FCF4F595AF37
:101B0B00041200337595FFE54ED39C400DE54E9CBA
:101B1B008004E54E6004FF1200330DBD08B175B0B3
:101B2B00FF22AC03A905C374079FFF7401A8070824
:101B3B008002C333D8FCF4F5C0E4FD74017E00A829
:101B4B0005088005C333CE33CED8F9FFE9FB3395B7
:101B5B00E05EFEEF5B4E6026C374079DFF7401A829
:101B6B0007088002C333D8FCF4F595AF0412003399
:101B7B007595FFE54ED39C400DE54E9C8004E54EDC
:101B8B006004FF1200330DBD08B175C0FF22AC031A
:101B9B00A905C374079FFF7401A807088002C3330C
:101BAB00D8FCF4F580E4FD74017E00A805088005DF
:101BBB00C333CE33CED8F9FFE9FB3395E05EFEEFAE
:101BCB005B4E6026C374079DFF7401A80708800253
:101BDB00C333D8FCF4F5B1AF0412003375B1FFE594
:101BEB004ED39C400DE54E9C8004E54E6004FF12E5
:101BFB0000330DBD08B17580FF22AC03A905C3747A
:101C0B00079FFF7401A807088002C333D8FCF4F5C3
:101C1B0080E4FD74017E00A805088005C333CE3334
:101C2B00CED8F9FFE9FB3395E05EFEEF5B4E602605
:101C3B00C374079DFF7401A807088002C333D8FC47
:101C4B00F4F5B3AF0412003375B3FFE54ED39C40EC
:101C5B000DE54E9C8004E54E6004FF1200330DBD74
:101C6B0008B17580FF22AC03A905C374079FFF74ED
:101C7B0001A807088002C333D8FCF4F5A0E4FD7477
:101C8B00017E00A805088005C333CE33CED8F9FFFB
:101C9B00E9FB3395E05EFEEF5B4E6026C374079D58
:101CAB00FF7401A807088002C333D8FCF4F5B1AF69
:101CBB000412003375B1FFE54ED39C400DE54E9CED
:101CCB008004E54E6004FF1200330DBD08B175A012
:101CDB00FF22AC03A905C374079FFF7401A8070873
:101CEB008002C333D8FCF4F5A0E4FD74017E00A898
:101CFB0005088005C333CE33CED8F9FFE9FB339506
:101D0B00E05EFEEF5B4E6026C374079DFF7401A877
:101D1B0007088002C333D8FCF4F5B3AF04120033C9
:101D2B0075B3FFE54ED39C400DE54E9C8004E54E0C
:101D3B006004FF1200330DBD08B175A0FF22AC0388
:101D4B00A905C374079FFF7401A807088002C3335A
:101D5B00D8FCF4F5B0E4FD74017E00A805088005FD
:101D6B00C333CE33CED8F9FFE9FB3395E05EFEEFFC
:101D7B005B4E6021C374079DFF7401A807088002A6
:101D8B00C333D8FC12002E7593FFE54ED39C400D48
:101D9B00E54E9C8004E54E6004FF1200330DBD0838
:101DAB00B675B0FF22AC03A905C374079FFF74017E
:101DBB00A807088002C333D8FCF4F5C0E4FD740116
:101DCB007E00A805088005C333CE33CED8F9FFE9D2
:101DDB00FB3395E05EFEEF5B4E6021C374079DFF06
:101DEB007401A807088002C333D8FC12002E759328
:101DFB00FFE54ED39C400DE54E9C8004E54E600400
:101E0B00FF1200330DBD08B675C0FF228E248F253F
:101E1B008F828E83E5822410F582E43583F583E08F
:101E2B009000C7F0A3743BF0E4A3F0A304F0A374F9
:101E3B00FFF0A37429F0A374CCF0EF2407FFE43E6A
:101E4B00A3F0A3EFF07E007FC7120ED8EF701AFF3E
:101E5B0012001EEF6019E5252407F582E43524F501
:101E6B0083E0FEA3E0FF0227B1E4FDFF12275C2213
:101E7B008E248F258F828E83E5822410F582E435A4
:101E8B0083F583E09000C7F0A37417F0E4A3F0A3ED
:101E9B007402F0A374FFF0A37429F0A374C8F0EFDD
:101EAB002407FFE43EA3F0A3EFF07E007FC7120EE2
:101EBB00D8EF701AFF12001EEF6013E5252407F50B
:101ECB0082E43524F583E0FEA3E0FF1227A5228FE1
:101EDB002A7B007A00792B7541017D0E7F681219E0
:101EEB00E2EF60037FFF22E52A7F0070027F018F04
:101EFB002AE52B5480FF3395E04F7F0060027F0172
:101F0B00E52A7E0060027E01EFB506037F0022E525
:101F1B002A6005432B808003532B7F7B007A00794B
:101F2B002B7532017D0E7F68121F37228F2D8D2E60
:101F3B008B348A3589361224EDE52D25E0FF1219F5
:101F4B006FEF70037FFF22AF2E12196FEF70037FBD
:101F5B00FF22E4F533E533C39532501FAB3405361E
:101F6B00E536AA357002053514F9120156FF121920
:101F7B006FEF70037FFF22053380DA1226697F0033
:101F8B00228B348A3589367B007A00793A75410287
:101F9B007D117F681219E2EF60037FFF22AB37AA36
:101FAB0038A939E41201BEE53B30E60BAB37AA3852
:101FBB00A939741912019CE53B30E70BAB37AA38F2
:101FCB00A939743212019CAB34AA35A936E53A1201
:101FDB0001BE7F00228B348A3589367B007A0079EB
:101FEB003A754102E4FD7F481219E2EF60037FFF6F
:101FFB0022AB37AA38A939E41201BEE53B30E60B18
:10200B00AB37AA38A939741912019CE53B30E70BA1
:10201B00AB37AA38A939743212019CAB34AA35A953
:10202B0036E53A1201BE7F00228E2A8F2B8B318A26
:10203B00328933122748E4F534F535C3E53595304D
:10204B00E52F6480F8E534648098502B052BE52B45
:10205B00AE2A7002052A14FFAB310533E533AA32E1
:10206B007002053214F9120156FD1226DF0535E513
:10207B003570C8053480C4AE2FAF3022C0E0C083AA
:10208B00C082C0D075D00853BCEFAFBDEFD394A0C6
:10209B00401290009E7401F090009C7437F0A37472
:1020AB0001F08021EFD39460400890009E7401F002
:1020BB00800A90009EE0600DE4F0A3E090009DF09C
:1020CB0090009CE4F0D0D0D082D083D0E032E4F505
:1020DB0046D295F54700C2947F057E00122734D275
:1020EB0094E4F548000548E548B403F8E54625E0D7
:1020FB00F546309503434601E4F548000548E548AD
:10210B00B403F80547C3E5476480948840C7C2947D
:10211B00E4F548000548E548B403F8AF4622AE079E
:10212B00AC037401A807088002C333D8FCF4F5B0E4
:10213B00E4FB7401A803088002C333D8FCF54E5DA1
:10214B006018E54EF4F595AF041200337595FFE575
:10215B004DD39C400DE54D9C8004E54D6004FF1272
:10216B0000330BBB08CC75B0FF22AE07AC03740178
:10217B00A807088002C333D8FCF4F5C0E4FB740154
:10218B00A803088002C333D8FCF54E5D6018E54EFA
:10219B00F4F595AF041200337595FFE54DD39C40D4
:1021AB000DE54D9C8004E54D6004FF1200330BBB25
:1021BB0008CC75C0FF22AE07AC037401A8070880DA
:1021CB0002C333D8FCF4F580E4FB7401A803088048
:1021DB0002C333D8FCF54E5D6018E54EF4F5B1AF94
:1021EB000412003375B1FFE54DD39C400DE54D9CBA
:1021FB008004E54D6004FF1200330BBB08CC7580E7
:10220B00FF22AE07AC037401A807088002C333D8C2
:10221B00FCF4F580E4FB7401A803088002C333D8F7
:10222B00FCF54E5D6018E54EF4F5B3AF04120033C8
:10223B0075B3FFE54DD39C400DE54D9C8004E54DFA
:10224B006004FF1200330BBB08CC7580FF22AE0776
:10225B00AC037401A807088002C333D8FCF4F5A0C3
:10226B00E4FB7401A803088002C333D8FCF54E5D70
:10227B006018E54EF4F5B1AF0412003375B1FFE50C
:10228B004DD39C400DE54D9C8004E54D6004FF1241
:10229B0000330BBB08CC75A0FF22AE07AC03740157
:1022AB00A807088002C333D8FCF4F5A0E4FB740143
:1022BB00A803088002C333D8FCF54E5D6018E54EC9
:1022CB00F4F5B3AF0412003375B3FFE54DD39C4067
:1022DB000DE54D9C8004E54D6004FF1200330BBBF4
:1022EB0008CC75A0FF228E248F258B2B8A2C892D51
:1022FB00E4FDFCC3ED952AE5296480F8EC64809835
:10230B0050280525E525AE247002052414FF12265E
:10231B00C8AB2B052DE52DAA2C7002052C14F9EF5B
:10232B001201BE0DBD00010C80C9AE29AF2A22E4FB
:10233B00F524B2977F587E021227340524C3E52477
:10234B00648094BC40ECE4F524B2977FE07E0112EC
:10235B0027340524C3E524648094E440ECE4F5249D
:10236B00B2977FB47E001227340524C3E524648022
:10237B0094E440ECD29722AE07AC037401A8070893
:10238B008002C333D8FCF4F5B0E4FB7401A8030856
:10239B008002C333D8FCF54E5D6013E54E12002E60
:1023AB007593FFE54DD39C400DE54D9C8004E54DA9
:1023BB006004FF1200330BBB08D175B0FF22AE07D0
:1023CB00AC037401A807088002C333D8FCF4F5C032
:1023DB00E4FB7401A803088002C333D8FCF54E5DFF
:1023EB006013E54E12002E7593FFE54DD39C400D07
:1023FB00E54D9C8004E54D6004FF1200330BBB08D8
:10240B00D175C0FF228B418A428943EF543F25E0AF
:10241B002400F545E54425E0FFAE071FEE6022AB37
:10242B00410543E543AA427002054214F9120156D5
:10243B00AD450545A805F27480B545DD75450080B1
:10244B00D8AF4422AF55AE548F828E83E0FBA3E00E
:10245B00FAA3E0F9EA494B60208F828E83E0FBA35D
:10246B00E0FAA3E0F8AC02AD037BFF7A2979D01236
:10247B000402EF70047F0180027F0022752400E5C7
:10248B0024C394805008A824E4F2052480F17593AA
:10249B00FF7595FF75B1FF75B3FF7594FF7596FFCB
:1024AB0075B2FF75B4FF7580FF75A0FF75B0FF7532
:1024BB00C0FF22C0E0C083C082C0D075D01030D81E
:1024CB0007C2D87F011227DF30D90EC2D97F002077
:1024DB0090027F0190009BEFF0D0D0D082D083D0C0
:1024EB00E032D295E4F546000546E546B402F8D253
:1024FB00947F057E00122734C2957F057E0012273C
:10250B0034C294E4F546000546E546B403F82212BE
:10251B0001566458702290000112016FB459199042
:10252B00000212016FFFC364809487400BEF64803D
:10253B0094A250047F0180027F00228B3F8A408946
:10254B004112015630E70C85424885434985444A80
:10255B000215AA85424885434985444AAB3FAA40A8
:10256B00A941120CD1224100E5004100E7004100D6
:10257B00E6004100E4004100E2004100E3000156A7
:10258B0001014FFF0150FF0151FF015200015300A8
:10259B0000EF24FF9295E4F546000546E546B404AA
:1025AB00F8D2947F057E00122734C294E4F54600DE
:1025BB000546E546B402F822C0E0C0F0C083C082F5
:1025CB00C0D075D010E553540F70057F061227D37A
:1025DB000553D0D0D082D083D0F0D0E03253070750
:1025EB007401A807088002C333D8FC429D75BC60F8
:1025FB0000EF42BC0043BC80D2AD7F017E000226BF
:10260B00B18B2C8A2D892E12269AE4F52FAB2CAA8E
:10261B002DA92E121A52052FC3E52F6480949440D6
:10262B00EC22E4FFFE20CC020F0E20CD040F43065C
:10263B00022092040F430604EA494B6004EE120198
:10264B00BE22852982852883EEF0A3EFF0E52924AD
:10265B0004F582E43528F583E52DF0D2AF22C2953F
:10266B0000D2947F057E00122734D295E4F5460004
:10267B000546E546B405F822758ABA758CFA9000C2
:10268B00E77432F0D28C9000E47401F0A3F0227561
:10269B008A5D758CFD9000E77464F0E49000E4F0C3
:1026AB00D28CA304F0227D1C7C08ED1D70011C1440
:1026BB004C70F7EF1F70011E144E70EA2275C78025
:1026CB0075C5018FC48EC375C65A75C6A500120099
:1026DB000EAFC22275C78075C5028FC48EC38DC263
:1026EB0075C65A75C6A50002000E538E7F5389F02E
:1026FB00438903758A1F758CFFC28DD2A9C28C22A8
:10270B00759850438E01438E0475D74175D6FD43A2
:10271B008E10C2AC22758A7C758CFC9000E77464B9
:10272B00F0D28CE49000E5F022EF1FAA0670011E98
:10273B004A6009007D041DED60EF80FA2275C780A9
:10274B0075C5038FC48EC375C65A75C6A500020026
:10275B000E8D2CAD077B007A00792C7532017F68CA
:10276B00121F3722538EBF53890F758B1C758DA883
:10277B00C28FD2ABD28E22E4F5D8F5E9F5F9F5D9B3
:10278B0075DA2175DB31D2DE22EF240CF582E43EC3
:10279B00F583E07F0070027F01227BFF7A2979C8E5
:1027AB007D021216D0227BFF7A2979CC7D0112167D
:1027BB00D022754103E4FD7F681219E222AD077543
:1027CB0041017F681219E22253BCF8EF440842BC66
:1027DB0022C2AF228F56223006FE7FFFFF03C003BB
:1027EB00C0FFFFFE7F000000003106000000000C60
:1027FB00C0FEFFFFFF00C00000000032060EF00F0E
:10280B00FC03CFC3C3FFC03EC0000000003306066D
:10281B006087E183C183C1FFFFFE7F0000000034AE
:10282B0006FE00FF0180018001FFFFFEFF0000009C
:10283B00003506FE60FFE183C183C183FF027F0089
:10284B000000003606FE7FFFFF83C183C183FF02BA
:10285B007F0000000037061E001F0003000300FF6F
:10286B00FFFEFF000000003806FE7FFFFF83C183E1
:10287B00C1FFFFFE7F000000003906FE60FFE18311
:10288B00C183C1FFFFFE7F0000000020010000009C
:10289B00000000000000000000000000002D06807A
:1028AB000180018001800180018001000000002E69
:1028BB00020060006000000000000000000000004B
:1028CB00005E040000783C783C0000000000000033
:1028DB00000000630810002800103F807FC0C0C0BC
:1028EB00C0C0E18061760400003C783C78000000B9
:1028FB00000000000000007F060000000000000048
:10290B00000000000000000000E8AEBE0000002048
:10291B00002320EE7FF43FA0904088E040BF618E03
:10292B0036821C9E1CBF37F263B0C01040E7BDAEB1
:10293B0000000020802F802F80E9FFA9FFAFAAFFA6
:10294B00AAF9AAAFAAAFAAA9FFE9FFAF802FC020AF
:10295B0080E697B6000000FE3FFC1F44084408FCCD
:10296B001FFE0F0400D000900710431040FFFFFE26
:10297B007F10001000E997B4000000FCFFF97F0303
:10298B00000600F21FE00F22092209E21FF20F22BC
:10299B00400240FEFFFF7F0200E58886000000003A
:1029AB00018000C080F040BE708F3F820F8020807E
:1029BB00408FFFBE7F7000E000C0018000E697B63D
:1029CB0000E5888600726F6F7400E8AEBEE7BDAE9F
:1029DB00E697B6E997B400202D202D202E202D2030
:1029EB00630020202D202D200056341202010119E6
:00000001FF
