:100000000214485391CF4392302222020B79E4F537
:10001000C7F5C5F5C675C380F5C42202255B122756
:10002000EFAE558F551225FEAF0622022059F4F58A
:0A00300093AF04AE071FEE70FA2232
:10003B00022456E709F608DFFA8046E709F208DFE3
:10004B00FA803E88828C83E709F0A3DFFA8032E3E3
:10005B0009F608DFFA8078E309F208DFFA80708886
:10006B00828C83E309F0A3DFFA806489828A83E0C0
:10007B00A3F608DFFA805889828A83E0A3F208DFAF
:10008B00FA804C80D280FA80C680D4806980F2805E
:10009B0033801080A680EA809A80A880DA80E28084
:1000AB00CA803389828A83ECFAE493A3C8C582C8D9
:1000BB00CCC583CCF0A3C8C582C8CCC583CCDFE943
:1000CB00DEE7800D89828A83E493A3F608DFF9ECDF
:1000DB00FAA9F0EDFB2289828A83ECFAE0A3C8C56A
:1000EB0082C8CCC583CCF0A3C8C582C8CCC583CC91
:1000FB00DFEADEE880DB89828A83E493A3F208DF00
:10010B00F980CC88F0EF60010E4E60C388F0ED24CF
:10011B0002B4040050B9F582EB2402B4040050AFD2
:10012B00232345822390008E73C2D530F707B2D5B7
:10013B0063F0FF05F030E70CB2D5F4048463F0FFF5
:10014B0005F080018430D502F40422BB01068982BC
:10015B008A83E0225002E722BBFE02E32289828AD5
:10016B0083E49322BB010CE58229F582E5833AF502
:10017B0083E0225006E92582F8E622BBFE06E9253C
:10018B0082F8E222E58229F582E5833AF583E4934E
:10019B0022BB010989828A83F8E028F022500327C9
:1001AB00F722BBFE05F8E328F3228A838982F8E461
:1001BB00932822BB010689828A83F0225002F72200
:1001CB00BBFE01F322BB010A89828A83E0F5F0A30F
:1001DB00E022500687F009E71922BBFE07E3F5F092
:1001EB0009E3192289828A83E493F5F0740193223F
:1001FB00BB010789828A830205F5500B09C5F027DD
:10020B00F7C5F01937F722BBFE0D09F8E325F0F31C
:10021B00C5F019E338F322F889828A837401932598
:10022B00F0C5F0F8E4933822BB010A89828A83F087
:10023B00E5F0A3F0225006F709A7F01922BBFE0642
:10024B00F3E5F009F31922A42582F582E5F0358355
:10025B00F58322BB010789828A830206145005E9C4
:10026B00F802060BBBFE05E9F802061D89828A839C
:10027B000206268A838982E473E3F5F009E208B566
:10028B00F06D606B80F3E3F5F009E608B5F06060A4
:10029B005E80F387F009E608B5F054605280F4876E
:1002AB00F009E208B5F048604680F488828C8387B9
:1002BB00F009E0A3B5F038603680F488828C838730
:1002CB00F009E493A3B5F027602580F388828C8333
:1002DB00E3F5F009E0A3B5F016601480F388828C87
:1002EB0083E3F5F009E493A3B5F004600280F20216
:1002FB0003AF808580E7808E80D2803C8015806C38
:10030B00807E809B80B5808B80A1804F8070803AEF
:10031B000203BB89828A83ECFAE493F5F0A3C8C588
:10032B0082C8CCC583CCE493A3C8C582C8CCC58393
:10033B00CCB5F070606E80E189828A83E493F5F02E
:10034B00A3E208B5F05E605C80F289828A83E0F5F7
:10035B00F0A3E608B5F04D604B80F389828A83E009
:10036B00F5F0A3E208B5F03C603A80F389828A830A
:10037B00E493F5F0A3E608B5F02A602880F28053E9
:10038B0089828A83ECFAE493F5F0A3C8C582C8CCC2
:10039B00C583CCE0A3C8C582C8CCC583CCB5F0045B
:1003AB00600280E27FFFB5F0020F2240027F012244
:1003BB0089828A83ECFAE0F5F0A3C8C582C8CCC564
:1003CB0083CCE0A3C8C582C8CCC583CCB5F0D560BF
:1003DB00D380E389828A83ECFAE0F5F0A3C8C58267
:1003EB00C8CCC583CCE493A3C8C582C8CCC583CC89
:1003FB00B5F0B160AF80E288F0ED2402B404005098
:10040B00A3F582EB2402B4040050992323458223E5
:10041B009002FD73E3F5F009E208B5F06BDFF580B0
:10042B0067E3F5F009E608B5F05EDFF5805A87F073
:10043B0009E608B5F052DFF6804E87F009E208B501
:10044B00F046DFF6804288828C8387F009E0A3B503
:10045B00F036DFF6803288828C8387F009E493A331
:10046B00B5F025DFF5802188828C83E3F5F009E078
:10047B00A3B5F014DFF5801088828C83E3F5F009C7
:10048B00E493A3B5F002DFF402054E808780E98088
:10049B009080D4803E8015806E807E809D80B7805A
:1004AB008D80A380518074803C02055A89828A8397
:1004BB00ECFAE493F5F0A3C8C582C8CCC583CCE4B1
:1004CB0093A3C8C582C8CCC583CCB5F076DFE3DE79
:1004DB00E1807089828A83E493F5F0A3E208B5F09A
:1004EB0062DFF4805E89828A83E0F5F0A3E608B5CB
:1004FB00F051DFF5804D89828A83E0F5F0A3E208A5
:10050B00B5F040DFF5803C89828A83E493F5F0A354
:10051B00E608B5F02EDFF4802A8002805789828AA4
:10052B0083ECFAE493F5F0A3C8C582C8CCC583CCA1
:10053B00E0A3C8C582C8CCC583CCB5F006DFE4DE2A
:10054B00E280007FFFB5F0020F2240027F0122897B
:10055B00828A83ECFAE0F5F0A3C8C582C8CCC583C8
:10056B00CCE0A3C8C582C8CCC583CCB5F0D5DFE53C
:10057B00DEE380CF89828A83ECFAE0F5F0A3C8C56D
:10058B0082C8CCC583CCE493A3C8C582C8CCC58331
:10059B00CCB5F0AFDFE4DEE280A988F0EF60010EAE
:1005AB004E60ABED2402B404005098F582EB2402AC
:1005BB00B40400508E232345822390049673EF4E90
:1005CB006012EF60010EEDBB010B89828A83F0A3F1
:1005DB00DFFCDEFA2289F05007F709DFFCA9F022D5
:1005EB00BBFEFCF309DFFCA9F022C5F0F8A3E02861
:1005FB00F0C5F0F8E582158270021583E038F02221
:10060B00E6FB08E6FA08E6F922E0FBA3E0FAA3E032
:10061B00F922E2FB08E2FA08E2F922E493FB740107
:10062B0093FA740293F9228E238F24EF2407F52675
:10063B00E43EF525855327855428ED24FE700302EF
:10064B00078E24FE7003020717147003020861144F
:10065B0070030208051470030208ED240660030200
:10066B00093412241EEF6003020937855482855327
:10067B0083A3A3A3E0FEA3E04E7003020937122667
:10068B0096855482855383A3A3A3E0FEA3E08E53E8
:10069B00F554FF122422EF60137F0112001EE52494
:1006AB00240FF582E43523F5837401F0E554240E11
:1006BB00F582E43553F583E0FEA3E04E602A8526F0
:1006CB0082852583E0FEA3E02420FFE43EFEE55473
:1006DB00240EF582E43553F583E0FCA3E0FDF582AF
:1006EB008C83120282020856852682852583E0FEC2
:1006FB00A3E02420FFE43EFE855482855383E0FB78
:10070B00A3E0FAA3E0F912184B020856E5542407AC
:10071B00F582E43553F583E0FBA3E0FAA3E0F9EAB5
:10072B00494B70030209371226AD85268285258336
:10073B00E0FEA3E024E0FFEE34FFFEE5542407F5D2
:10074B0082E43553F583E0FBA3E0FAA3E0F9120250
:10075B005E12184BAA25A9267B017532027D407CBF
:10076B00001214EB852682852583EEF0A3EFF0E5CE
:10077B00542407F582E43553F583A3E0FAA3E0AEE6
:10078B00028070E5542405F582E43553F583E0FED1
:10079B00A3E04E70030209371226AD85268285250C
:1007AB0083E0FEA3E02420FFE43EFEE5542405F5A0
:1007BB0082E43553F583E0FCA3E0F5828C83E0FB08
:1007CB00A3E0FAA3E0F912184BAA25A9267B017521
:1007DB003C027D407C00121614852682852583EE13
:1007EB00F0A3EFF0E5542405F582E43553F583E0EF
:1007FB00FEA3E08E53F55402093712241EEF70034B
:10080B00020937855482855383A3A3A3E0FEA3E09B
:10081B004E7003020937122696855482855383A3A3
:10082B00A3A3E0FEA3E08E53F55485268285258392
:10083B00E0FEA3E02420FFE43EFE85548285538333
:10084B00E0FBA3E0FAA3E0F912184BAA25A9267B3B
:10085B0001753C02807812241EEF700302093712D7
:10086B002696755300755400AA25A9267B01752E73
:10087B000F752FFF7530297531E87D207C00120F25
:10088B00C0852682852583EEF0A3EFF0E554240E78
:10089B00F582E43553F583E0FEA3E04E6027852611
:1008AB0082852583E0FEA3E02420FFE43EFEE55491
:1008BB00240EF582E43553F583E0FCA3E0FDF582CD
:1008CB008C83120282AA25A9267B01753C0F7D40E1
:1008DB007C00121614852682852583EEF0A3EFF09B
:1008EB00804A12241EEF6044E524240EF582E43581
:1008FB0023F583E07036E524240EF582E43523F5E9
:10090B00837401F0E524240DFFE43523FAA9077B5A
:10091B0001752E00752F027F007E021220067F01CB
:10092B00121EAC1226967F01227F0022E528655409
:10093B007004E52765537F0060027F01228E238FB1
:10094B00248E258F26EF2407F528E43EF5278F828A
:10095B008E83E582240FF582E43583F583E0F52958
:10096B00E4F52AF52BFF12001EEF7003020B78AA99
:10097B0025A9267B011227D0EF6003020B78852671
:10098B0082852583E0FFB54E07E5297003020B78BE
:10099B008F4EE5296019852882852783E4F0A3F023
:1009AB00E524240FF582E43523F583E4F0F551E5D6
:1009BB00516003020AC3AA25A9267B011224B2EFB8
:1009CB006011E524240CF582E43523F583E07003F4
:1009DB00122733852682852583A3A3E0FFB5500418
:1009EB00E52960418F50E55075F010120134243029
:1009FB00900041F0A37420F0E55075F01012013413
:100A0B00AFF0EF2430900043F0A37420F0E4A3F098
:100A1B007B017A007941AF2BAE2A12184BEF252BB5
:100A2B00F52BEE8007740E252BF52BE4352AF52AD2
:100A3B00E54E90004130E005745EF080037476F073
:100A4B009000427420F0E4A3F07B017A007941AF6F
:100A5B002BAE2A12184BEF252BF52BEE352AF52A48
:100A6B00852682852583A3E0FFB54F04E529603DEC
:100A7B008F4FE54F75F0101201342430900041F088
:100A8B00A37420F0E54F75F010120134AFF0EF2492
:100A9B0030900043F0E4A3F07B017A007941AF2B57
:100AAB00AE2A12184BEF252BF52BEE8007740D2574
:100ABB002BF52BE4352AF52AE54E540FFFD3648032
:100ACB0094824062EF64809485505BAF24AE231216
:100ADB0027A7EF6051E5516003020B781227EFAFA8
:100AEB0024AE231227A7EF70030225FEE52824046A
:100AFB00F582E43527F583E0F52CE5282404F5820F
:100B0B00E43527F5837437F0AF2BAE2A1210A7AA62
:100B1B0027A9287B01753C017D407C00121614121D
:100B2B0025E575510122E55160431227EFE5282495
:100B3B0004F582E43527F583E0F52CE524240CF548
:100B4B0082E43523F583E0700EE5282404F582E476
:100B5B003527F5837437F0AA27A9287B0175320155
:100B6B007D407C001214EB1225E5E4F55122C0E028
:100B7B00C0F0C083C082C0D075D01890005FE0FF7A
:100B8B006401706DB29790005CE004F0900061E03E
:100B9B00FE90005CE0D39E4018E4F090005EE060B5
:100BAB0006900060E004F0C28CD29790005D740157
:100BBB00F090005EE07003020CBA90005DE07003F1
:100BCB00020CBAE4F0900060E024FE601314601E87
:100BDB0024026003020CBA758A5D758CFD020C79D8
:100BEB00758ABA758CFA9000617432020CAC020CE7
:100BFB00B1EF6003020CBA900060E0FF6401600C7F
:100C0B00EF64036007EF64056002B29790005CE04D
:100C1B0004F0900061E0FF90005CE0C39F4012E4A1
:100C2B00F0900060E004F0C28CD29790005D7401EC
:100C3B00F090005DE06078E4F0900060E014B407A1
:100C4B0000506C900C5C75F003A4C58325F0C58334
:100C5B0073020C71020C73020C80020C82020C8F5B
:100C6B00020CA1020CB1801C758A7C758CFC900067
:100C7B00617464802C800D758A7C758CFC9000618E
:100C8B007464801D758A46758C249000617419F00C
:100C9B00D297D28C8019758A3E758CFE9000617448
:100CAB00C8F0D28C8009900060E4F090005EF0D028
:100CBB00D0D082D083D0F0D0E0328B448A458946A5
:100CCB00754A0A754B10120156FFD3648094B950C4
:100CDB003EC3EF648094B04036EF3395E0FE902432
:100CEB009775F012EF120252EE75F012A42583AB3A
:100CFB0047AA48A9498582F0120233AB44AA45A9F9
:100D0B0046120156FF3395E0FE902496020DA7C3C1
:100D1B00E54A6480F8E54B6480985003020DBBE50F
:100D2B004B954AA2E713254AF54CAB44AA45A94675
:100D3B00120156FFE54CFD3395E0FC9027F575F05D
:100D4B0012ED120252EC75F012A42583F583E49395
:100D5B00FED3EF6480F8EE6480984007E54C14F501
:100D6B004B80ACC3EF6480F8EE6480985007E54C81
:100D7B0004F54A809A9027F775F012ED120252ECA7
:100D8B0075F012A42583AB47AA48A9498582F012B6
:100D9B000233AF4CEF3395E0FE9027F675F012EF70
:100DAB00120252EE75F012A42583F583E493FF2211
:100DBB00AB47AA48A949E475F0011202337FFF2221
:100DCB007E297F2775270075285274DB6F7003749B
:100DDB00296E6023EFFD2424FFEEFC3400FEE52892
:100DEB00FB2402F528E527FA3400F5278B828A834A
:100DFB00ECF0A3EDF080D3752300752401E52425D9
:100E0B00E0FFE52333FE74522FF58274003EF58329
:100E1B00E0FEA3E08E29F52AE52424FFF526E52341
:100E2B0034FFF525C3E525648094804068AA29A981
:100E3B002A7BFFC002E52625E0FFE52533FE745231
:100E4B002FF58274003EF583E0FEA3E0AA06F8AC12
:100E5B00027DFFD0027E007F031205A5D3EF6480D5
:100E6B0094804031E52625E0FFE52533FE74522FB3
:100E7B00F58274003EF583E0FCA3E0FD74542FF57E
:100E8B008274003EF583ECF0A3EDF0E52615267099
:100E9B00931525808FE52625E0FFE52533FE745459
:100EAB002FF58274003EF583E529F0A3E52AF005C2
:100EBB0024E52470020523640545236003020E0814
:100ECB00228E258F268F828E83A3A3A3E0F5288FF6
:100EDB00828E83E5822407F582E43583F583E0FE79
:100EEB00A3E08E29F52A7B007A007927AF281227F9
:100EFB00DBEF60037F0022E52775F01012013475DC
:100F0B00F00AA4FFE52775F010120134AEF0EF2EB6
:100F1B00F527852682852583E024FC602624027034
:100F2B004D852682852583A3E00527D36480F8E5CC
:100F3B0027648098402D852682852583A3A3E0F521
:100F4B00278020852682852583A3A3E01527C364EC
:100F5B0080F8E527648098500A852682852583A32F
:100F6B00E0F527AA29A92A7B011225A480037F007B
:100F7B0022E52775F00A120134C454F0FFE52775FA
:100F8B00F00A120134AEF0EF2EFDAF2812276F8559
:100F9B002A82852983E0FEA3E0FFE5262404F5825F
:100FAB00E43525F583E0FBA3E0FAA3E0F9AD2812C5
:100FBB0016A67F01228C2C8D2D8B298A2A892B85B5
:100FCB002C34852D351201D0AEF0252DF52DEE35B7
:100FDB002CF52CAB2FAA30A931120156700302103D
:100FEB00967541007542007543321224DE8F36C36D
:100FFB00E536648094805013AF33EF3395E0FEEF0A
:10100B002531F531EE3530F53080C8E5367E00B44C
:10101B0010047F0380027F01EF2531F531EE35306F
:10102B00F530AA32A9337BFF853643AF2DAE2C1298
:10103B0023E2EF252DF52DE4352CF52CAF36EF33D0
:10104B0095E0FEEF2535F535EE3534F534D3E53542
:10105B009430E53494005003020FDEAB29AA2AA981
:10106B002BE53524FFFDE53434FFFC852E3C1216B1
:10107B0014EF2401FFE43EAB29AA2AA92B8FF0120F
:10108B000233753400753520020FDEAB29AA2AA96D
:10109B002B852E3CAD35AC34121614228E2D8F2E93
:1010AB0078467C007D017BFF7A2979F57E007F0BEA
:1010BB0012010E75310075324775360075370075A4
:1010CB0038307B007A00792F121FB2EF601875361B
:1010DB00007537007538307B007A00792F121F5E50
:1010EB00EF600302117CD3E52F648094764051D3DB
:1010FB00E52F648094894010E52F75F00A120134B6
:10110B002430900047F08017C3E52F648094804013
:10111B0008900047747FF08006E52FF404F52FE567
:10112B002F75F00A120134AFF0EF2430900049F024
:10113B00E53075F00A120134243090004DF0803107
:10114B00E52FF404F52F9000477420F0E52F75F090
:10115B000A120134243090004BF0E52F75F00A127F
:10116B000134AFF0EF243090004DF0753100753243
:10117B0046AA31A9327B01AF2EAE2D12184B227528
:10118B0020007521171227EF1218CF12230C1227EC
:10119B001E12000A1226011200031217C1120DCBE8
:1011AB001212451227957F06122580122708122747
:1011BB00821225FE7B017A0079201225C5EF60296A
:1011CB007E007F10900020E0FD1206328F22E52278
:1011DB0060177B017A0079201225C5EF600BAA20DE
:1011EB00A9217B01121CB080E5E55445536039E51C
:1011FB0054240CF582E43553F583E0FEA3E04E60F6
:10120B0027E554240AF582E43553F583E0FEA3E089
:10121B00FFE554240CF582E43553F583E0FCA3E0A1
:10122B00FDF5828C831202821227EFAA20A9217B63
:10123B0001121CB01225FE0211BF7E007F107D0033
:10124B007B017A0079311205C990003174FFF0A34C
:10125B007429F0A374E3F090003B7400F0A37410B6
:10126B00F090003F7417F0A37435F090003D7409B3
:10127B00F0A37448F07E007F107D007B017A00792B
:10128B00001205C990000A7400F0A37410F09000CE
:10129B00037400F0A37421F090000E7427F0A37474
:1012AB00B8F090000C741EF0A3744DF07E007F100C
:1012BB007D007B017A0079211205C990002B740007
:1012CB00F0A37410F07E007F31900024EEF0A3EFBA
:1012DB00F090002F7427F0A374C4F090002D741DB0
:1012EB00F0A374E9F08E538F5422AA07A802E6FFED
:1012FB007803A2E713D8FBFEEF5407F546EA240464
:10130B00F8E6F547EA2403F8E6F548AF06EF146074
:10131B00291460451460612403707CEA04F8E6FD2F
:10132B0085484CAB47AF46121C44EA2402F8E6FD55
:10133B0085484CAB47AF46021B00EA04F8E6FD8537
:10134B00484CAB47AF46121B6CEA2402F8E6FD850E
:10135B00484CAB47AF46021A28EA04F8E6FD85482D
:10136B004CAB47AF46121BD8EA2402F8E6FD854882
:10137B004CAB47AF46021D82EA04F8E6FD85484CAC
:10138B00AB47AF46121A94EA2402F8E6FD85484CA7
:10139B00AB47AF46121D1B22AA07A802E6FF780334
:1013AB00A2E713D8FBFEEF5407F546EA2404F8E650
:1013BB00F547EA2403F8E6F9AF06EF14602714604B
:1013CB004114605B24037074EA04F8E6FD894BABAF
:1013DB0047AF46122354EA2402F8E6FD894BAB478C
:1013EB00AF46022147EA04F8E6FD894BAB47AF460F
:1013FB0012239BEA2402F8E6FD894BAB47AF46026A
:10140B00222BEA04F8E6FD894BAB47AF461220FBD3
:10141B00EA2402F8E6FD894BAB47AF460221DFEA2F
:10142B0004F8E6FD894BAB47AF46122193EA240241
:10143B00F8E6FD894BAB47AF4612227722787FE463
:10144B00F6D8FD9001007F027E07E4F0A3DFFCDEFF
:10145B00FA78007FFFE4F208DFFC7581DA0214A64C
:10146B0002118AE493A3F8E493A34003F68001F2FC
:10147B0008DFF48029E493A3F85407240CC8C33382
:10148B00C4540F4420C8834004F456800146F6DF51
:10149B00E4800B0102040810204080902509E47EB3
:1014AB00019360BCA3FF543F30E509541FFEE49346
:1014BB00A360010ECF54C025E060A840B8E493A30D
:1014CB00FAE493A3F8E493A3C8C582C8CAC583CA38
:1014DB00F0A3C8C582C8CAC583CADFE9DEE780BEF0
:1014EB008C308D318B2D8A2E892F1201D0F53685BC
:1014FB00F035D3E5319440E5309400500BC3E53122
:10150B009420E53094005005AE35AF3622E4F53328
:10151B00F534E53124E1FFE53034FFFEC3E5349FBC
:10152B00E5339E502EE4F537E537C39532500DABBE
:10153B002DAA2EA92F121CB0053780ECAB2DAA2E8D
:10154B00A92F74FFF5F01201FB0534E53470C305C8
:10155B003380BFAB2DAA2EA92FE5358536F01202AD
:10156B0033E53124E0FFE53034FFFEC3E5369FFF62
:10157B00E5359EFE228B448A458946E4F54A754B38
:10158B0004E54BC3954A4071E54B954AC313254A75
:10159B00F54C25E02452F582E43400F583E0FEA3FC
:1015AB00E0AA06F97BFFA846AC45AD447E007F035D
:1015BB001205A58F4DD3E54D648094804007E54C13
:1015CB0004F54A80BCC3E54D648094805007E54C1C
:1015DB0014F54B80ACE54C25E02452F582E4340045
:1015EB00F583E0FEA3E02404FFE43EAB47AA48A941
:1015FB00498FF01202337F1022AB47AA48A949E466
:10160B0075F0031202337FFF228C3A8D3B8B378AA6
:10161B003889391201D0F54085F03FD3E53B944032
:10162B00E53A9400500BC3E53B9420E53A94005007
:10163B0005AE3FAF4022E4F53DF53EE53B24E1FF2F
:10164B00E53A34FFFEC3E53E9FE53D9E502EE4F5A3
:10165B0041E541C3953C500DAB37AA38A939121C53
:10166B00B0054180ECAB37AA38A939E475F001120B
:10167B0001FB053EE53E70C3053D80BFAB37AA3885
:10168B00A939E53F8540F0120233E540253BCFE514
:10169B003F353ACF24E0CF34FFFE228E2B8F2C8D9B
:1016AB002D8B2E8A2F8930852B32852C33784A7CD3
:1016BB00007D017BFF7A2A79007E007F0712010EE5
:1016CB007B007A007931AF2D1227DBEF6004E4FE4B
:1016DB00FF22E53175F010120134243090004CF0EC
:1016EB00E53175F010120134AFF0EF243090004E5D
:1016FB00F07B017A00794AAF2CAE2B12184BEF25F9
:10170B002CF52CEE352BF52BAB2EAA2FA930AF2CAD
:10171B00FE12184BEF252CF52CEE352BF52BC3E5D4
:10172B002C9533FFE52B9532FE228E238F247B01E4
:10173B007A0079411227D0EF6005AE23AF242290B7
:10174B000043E0FD75F0101201342430900048F096
:10175B00A37420F0ED75F010120134AFF0EF2430CC
:10176B0090004AF0A37420F0900041E090004C30C0
:10177B00E005745EF080037476F090004D7420F0F9
:10178B00900042E0FD75F010120134243090004EB1
:10179B00F0A37420F0ED75F010120134AFF0EF24CC
:1017AB0030900050F0E4A3F07B017A007948AF242D
:1017BB00AE2312184B227B007A0079237540017DF2
:1017CB000F7F681219B8EF60037FFF22E52330E724
:1017DB002C78247C007D007BFF7A2A79077E007FA2
:1017EB000712010E7B007A007924753107E4FD7F27
:1017FB0068121F09EF60037FFF2253237F5323F7E8
:10180B007B007A0079237531017D0F7F68121F09E8
:10181B00EF60037FFF227B007A0079237540017D07
:10182B000E7F681219B8EF60037FFF225323E37B0F
:10183B00007A0079237531017D0E7F68121F092212
:10184B008E348F358B368A37893885343B85353CDA
:10185B00AB36AA37A938120156605D754100754247
:10186B00007543391224DE8F3DC3E53D64809480BF
:10187B005013AF3AEF3395E0FEEF2538F538EE35E0
:10188B0037F53780CBE53D7E00B410047F03800233
:10189B007F01EF2538F538EE3537F537AA39A93AF8
:1018AB007BFF853D43AF35AE341223E2EF2535F593
:1018BB0035E43534F5348098C3E535953CFFE53494
:1018CB00953BFE227E007F117D007B017A00791013
:1018DB001205C9E490001AF07F002090027F01905E
:1018EB000019EFF090001F7401F0FF12001EFB7A3D
:1018FB0000791D7528007529027F007E021222C314
:10190B0090001DE0D394505006A3E09401401A9030
:10191B00001D7450F0E4A3F07B017A00791DF52EC5
:10192B00752F02FF7E0212200690001EE0FF121E92
:10193B00AC90001DE090001BF0228F45E4F5467E35
:10194B0000E545A846088005C333CE33CED8F97FD2
:10195B000020E7027F01EF24FFB3929500D2947F22
:10196B00057E00122747C2940546C3E54664809462
:10197B008840CCE4F547000547E547B403F8D2951A
:10198B00E4F547000547E547B403F8D294E4F5477F
:10199B00000547E547B404F87F002095027F01C29C
:1019AB0094E4F547000547E547B402F8228F3B8DD9
:1019BB003C8B428A438944E53B25E0F53B12248569
:1019CB00AF3B121945EF70037FFF22AF3C12194555
:1019DB00EF70037FFF22122485E53B4401FF1219B0
:1019EB0045EF70037FFF22E4F541E541C39540507D
:1019FB00261220ABAB420544E544AA4370020543D3
:101A0B0014F9EF1201BEE540147F00B541027F01CE
:101A1B00122534054180D312261C7F0022AC03A96A
:101A2B0005C374079FFF7401A807088002C333D84E
:101A3B00FCF4F580E4FD74017E00A805088005C365
:101A4B0033CE33CED8F9FFE9FB3395E05EFEEF5B87
:101A5B004E6026C374079DFF7401A807088002C35C
:101A6B0033D8FCF4F5B1AF0412003375B1FFE54C7C
:101A7B00D39C400DE54C9C8004E54C6004FF1200A8
:101A8B00330DBD08B17580FF22AC03A905C37407E4
:101A9B009FFF7401A807088002C333D8FCF4F5B08C
:101AAB00E4FD74017E00A805088005C333CE33CE58
:101ABB00D8F9FFE9FB3395E05EFEEF5B4E6026C382
:101ACB0074079DFF7401A807088002C333D8FCF488
:101ADB00F595AF041200337595FFE54CD39C400D83
:101AEB00E54C9C8004E54C6004FF1200330DBD08EF
:101AFB00B175B0FF22AC03A905C374079FFF740136
:101B0B00A807088002C333D8FCF4F5A0E4FD7401E8
:101B1B007E00A805088005C333CE33CED8F9FFE984
:101B2B00FB3395E05EFEEF5B4E6026C374079DFFB3
:101B3B007401A807088002C333D8FCF4F5B1AF04D5
:101B4B0012003375B1FFE54CD39C400DE54C9C80E6
:101B5B0004E54C6004FF1200330DBD08B175A0FF06
:101B6B0022AC03A905C374079FFF7401A807088063
:101B7B0002C333D8FCF4F580E4FD74017E00A805A4
:101B8B00088005C333CE33CED8F9FFE9FB3395E09C
:101B9B005EFEEF5B4E6026C374079DFF7401A807C2
:101BAB00088002C333D8FCF4F5B3AF0412003375CD
:101BBB00B3FFE54CD39C400DE54C9C8004E54C6099
:101BCB0004FF1200330DBD08B17580FF22AC03A9D1
:101BDB0005C374079FFF7401A807088002C333D89D
:101BEB00FCF4F5C0E4FD74017E00A805088005C374
:101BFB0033CE33CED8F9FFE9FB3395E05EFEEF5BD6
:101C0B004E6026C374079DFF7401A807088002C3AA
:101C1B0033D8FCF4F595AF041200337595FFE54C02
:101C2B00D39C400DE54C9C8004E54C6004FF1200F6
:101C3B00330DBD08B175C0FF22AC03A905C37407F2
:101C4B009FFF7401A807088002C333D8FCF4F5A0EA
:101C5B00E4FD74017E00A805088005C333CE33CEA6
:101C6B00D8F9FFE9FB3395E05EFEEF5B4E6026C3D0
:101C7B0074079DFF7401A807088002C333D8FCF4D6
:101C8B00F5B3AF0412003375B3FFE54CD39C400D95
:101C9B00E54C9C8004E54C6004FF1200330DBD083D
:101CAB00B175A0FF221201D0543F25E02456F54315
:101CBB0090000312016F78D9F690000412016F782F
:101CCB00DAF690000212016F60067E127FF5800437
:101CDB007E137FA38E448F45E4F54278D6A642AFA0
:101CEB00430543A807E678D7F6AF430543A807E6B5
:101CFB0078D8F674D6B543037543567FD68545829F
:101D0B008544831202820542E542C3942040CC22D3
:101D1B00AC03A905C374079FFF7401A807088002D1
:101D2B00C333D8FCF4F5B0E4FD74017E00A80508BC
:101D3B008005C333CE33CED8F9FFE9FB3395E05E94
:101D4B00FEEF5B4E6021C374079DFF7401A807086B
:101D5B008002C333D8FC12002E7593FFE54CD39C45
:101D6B00400DE54C9C8004E54C6004FF1200330DE4
:101D7B00BD08B675B0FF22AC03A905C374079FFF5E
:101D8B007401A807088002C333D8FCF4F5C0E4FD46
:101D9B0074017E00A805088005C333CE33CED8F975
:101DAB00FFE9FB3395E05EFEEF5B4E6021C37407EA
:101DBB009DFF7401A807088002C333D8FC12002EC4
:101DCB007593FFE54CD39C400DE54C9C8004E54C92
:101DDB006004FF1200330DBD08B675C0FF228E23C1
:101DEB008F248F828E83E5822410F582E43583F570
:101DFB0083E0900041F0A3743BF0E4A3F0A304F064
:101E0B00A374FFF0A37429F0A374DFF0EF2407FF92
:101E1B00E43EA3F0A3EFF07E007F41120ECCEF70F7
:101E2B001AFF12001EEF6019E5242407F582E43532
:101E3B0023F583E0FEA3E0FF0227C4E4FDFF122796
:101E4B006F228E238F248F828E83E5822410F5825E
:101E5B00E43583F583E0900041F0A37417F0E4A31D
:101E6B00F0A37402F0A374FFF0A37429F0A374DB46
:101E7B00F0EF2407FFE43EA3F0A3EFF07E007F41D9
:101E8B00120ECCEF701AFF12001EEF6013E5242424
:101E9B0007F582E43523F583E0FEA3E0FF1227B8B4
:101EAB00228F297B007A00792A7540017D0E7F688D
:101EBB001219B8EF60037FFF22E5297F0070027FC4
:101ECB00018F29E52A5480FF3395E04F7F00600294
:101EDB007F01E5297E0060027E01EFB506037F00DE
:101EEB0022E5296005432A808003532A7F7B007AF1
:101EFB0000792A7531017D0E7F68121F09228F2C04
:101F0B008D2D8B338A348935122485E52C25E0FF02
:101F1B00121945EF70037FFF22AF2D121945EF7099
:101F2B00037FFF22E4F532E532C39531501FAB330B
:101F3B000535E535AA347002053414F9120156FF44
:101F4B00121945EF70037FFF22053280DA12261C2F
:101F5B007F00228B338A3489357B007A007939757F
:101F6B0040027D117F681219B8EF60037FFF22AB2F
:101F7B0036AA37A938E41201BEE53A30E60BAB3688
:101F8B00AA37A938741912019CE53A30E70BAB3626
:101F9B00AA37A938743212019CAB33AA34A935E5A0
:101FAB00391201BE7F00228B338A3489357B007A4C
:101FBB00007939754002E4FD7F481219B8EF6003D0
:101FCB007FFF22AB36AA37A938E41201BEE53A30BF
:101FDB00E60BAB36AA37A938741912019CE53A30D7
:101FEB00E70BAB36AA37A938743212019CAB33AA74
:101FFB0034A935E5391201BE7F00228E298F2A8B39
:10200B00308A31893212275BE4F533F534C3E5347A
:10201B00952FE52E6480F8E533648098502B052AC4
:10202B00E52AAE297002052914FFAB300532E532E3
:10203B00AA317002053114F9120156FD1226F20570
:10204B0034E53470C8053380C4AE2EAF2F22C0E008
:10205B00C083C082C0D075D00853BCEFAFBDEFD3E7
:10206B0094A0401290001C7401F090001A7437F089
:10207B00A37401F08021EFD39460400890001C748E
:10208B0001F0800A90001CE0600DE4F0A3E09000EA
:10209B001BF090001AE4F0D0D0D082D083D0E03285
:1020AB00E4F545D295F54600C2947F057E001227D4
:1020BB0047D294E4F547000547E547B403F8E545F7
:1020CB0025E0F545309503434501E4F54700054709
:1020DB00E547B403F80546C3E5466480948840C7DA
:1020EB00C294E4F547000547E547B403F8AF452232
:1020FB00AE07AC037401A807088002C333D8FCF405
:10210B00F580E4FB7401A803088002C333D8FCF507
:10211B004C5D6018E54CF4F5B1AF0412003375B1AA
:10212B00FFE54BD39C400DE54B9C8004E54B6004D5
:10213B00FF1200330BBB08CC7580FF22AE07AC033C
:10214B007401A807088002C333D8FCF4F5B0E4FB94
:10215B007401A803088002C333D8FCF54C5D6018EA
:10216B00E54CF4F595AF041200337595FFE54BD3B1
:10217B009C400DE54B9C8004E54B6004FF12003343
:10218B000BBB08CC75B0FF22AE07AC037401A807DC
:10219B00088002C333D8FCF4F5A0E4FB7401A80358
:1021AB00088002C333D8FCF54C5D6018E54CF4F5A0
:1021BB00B1AF0412003375B1FFE54BD39C400DE575
:1021CB004B9C8004E54B6004FF1200330BBB08CC27
:1021DB0075A0FF22AE07AC037401A807088002C3E9
:1021EB0033D8FCF4F580E4FB7401A803088002C328
:1021FB0033D8FCF54C5D6018E54CF4F5B3AF041225
:10220B00003375B3FFE54BD39C400DE54B9C80042D
:10221B00E54B6004FF1200330BBB08CC7580FF222B
:10222B00AE07AC037401A807088002C333D8FCF4D3
:10223B00F5C0E4FB7401A803088002C333D8FCF596
:10224B004C5D6018E54CF4F595AF041200337595B1
:10225B00FFE54BD39C400DE54B9C8004E54B6004A4
:10226B00FF1200330BBB08CC75C0FF22AE07AC03CB
:10227B007401A807088002C333D8FCF4F5A0E4FB73
:10228B007401A803088002C333D8FCF54C5D6018B9
:10229B00E54CF4F5B3AF0412003375B3FFE54BD344
:1022AB009C400DE54B9C8004E54B6004FF12003312
:1022BB000BBB08CC75A0FF228E238F248B2A8A2B75
:1022CB00892CE4FDFCC3ED9529E5286480F8EC64CA
:1022DB00809850280524E524AE237002052314FFB3
:1022EB001226DBAB2A052CE52CAA2B7002052B142E
:1022FB00F9EF1201BE0DBD00010C80C9AE28AF294C
:10230B0022E4F523B2977F587E021227470523C399
:10231B00E523648094BC40ECE4F523B2977FE07E28
:10232B00011227470523C3E523648094E440ECE4C2
:10233B00F523B2977FB47E001227470523C3E5230D
:10234B00648094E440ECD29722AE07AC037401A8EE
:10235B0007088002C333D8FCF4F5B0E4FB7401A882
:10236B0003088002C333D8FCF54C5D6013E54C12B7
:10237B00002E7593FFE54BD39C400DE54B9C8004E1
:10238B00E54B6004FF1200330BBB08D175B0FF2285
:10239B00AE07AC037401A807088002C333D8FCF462
:1023AB00F5C0E4FB7401A803088002C333D8FCF525
:1023BB004C5D6013E54C12002E7593FFE54BD39CDF
:1023CB00400DE54B9C8004E54B6004FF1200330B82
:1023DB00BB08D175C0FF228B408A418942EF543F25
:1023EB0025E02456FFE54325E0FEAD061EED6020FB
:1023FB00AB400542E542AA417002054114F91201B6
:10240B0056AC070FA804F674D6B507DE7F5680DAF4
:10241B00AF4322AF54AE538F828E83E0FBA3E0FA1F
:10242B00A3E0F9EA494B60208F828E83E0FBA3E0A7
:10243B00FAA3E0F8AC02AD037BFF7A2979E312042F
:10244B0002EF70047F0180027F0022C0E0C083C0D6
:10245B0082C0D075D01030D807C2D87F011227F2B6
:10246B0030D90EC2D97F002090027F01900019EF66
:10247B00F0D0D0D082D083D0E032D295E4F54500B5
:10248B000545E545B402F8D2947F057E0012274737
:10249B00C2957F057E00122747C294E4F5450005DF
:1024AB0045E545B403F8221201566458702290009A
:1024BB000112016FB4591990000212016FFFC3642E
:1024CB00809487400BEF648094A250047F018002BC
:1024DB007F00228B3E8A3F894012015630E70C85E4
:1024EB0041478542488543490215808541478542CE
:1024FB0048854349AB3EAA3FA940120CC522410077
:10250B005F00410061004100600041005E0041003E
:10251B005C0041005D00015501014EFF014FFF01C1
:10252B0050FF01510001520000EF24FF9295E4F59A
:10253B0045000545E545B404F8D2947F057E0012AD
:10254B002747C294E4F545000545E545B402F8225A
:10255B00C0E0C0F0C083C082C0D075D010E552542B
:10256B000F70057F061227E60552D0D0D082D0839C
:10257B00D0F0D0E0325307077401A807088002C3DC
:10258B0033D8FC429D75BC6000EF42BC0043BC805D
:10259B00D2AD7F017E000226C48B2B8A2C892D1293
:1025AB0026ADE4F52EAB2BAA2CA92D121CB0052EB3
:1025BB00C3E52E6480949440EC22E4FFFE20CC0211
:1025CB000F0E20CD040F4306022092040F43060486
:1025DB00EA494B6004EE1201BE22852882852783CF
:1025EB00EEF0A3EFF0E5282404F582E43527F5831C
:1025FB00E52CF0D2AF227F56EFC394D65007A80735
:10260B00E4F60F80F312263612264E1226660226A9
:10261B007EC29500D2947F057E00122747D295E4A7
:10262B00F545000545E545B405F822E4F580F5B020
:10263B007593FF7594FF75B1FF75B2FF7580FF75CC
:10264B00B0FF22E4F5A0F5B07595FF7596FF75B157
:10265B00FF75B2FF75A0FF75B0FF22E4F580F5C0E2
:10266B007593FF7594FF75B3FF75B4FF7580FF7598
:10267B00C0FF22E4F5A0F5C07595FF7596FF75B305
:10268B00FF75B4FF75A0FF75C0FF22758ABA758CF4
:10269B00FA9000617432F0D28C90005E7401F0A35A
:1026AB00F022758A5D758CFD9000617464F0E49086
:1026BB00005EF0D28CA304F0227D1C7C08ED1D7013
:1026CB00011C144C70F7EF1F70011E144E70EA22A0
:1026DB0075C78075C5018FC48EC375C65A75C6A5DF
:1026EB000012000EAFC22275C78075C5028FC48E53
:1026FB00C38DC275C65A75C6A50002000E538E7FD8
:10270B005389F0438903758A1F758CFFC28DD2A93B
:10271B00C28C22759850438E01438E0475D7417538
:10272B00D6FD438E10C2AC22758A7C758CFC900052
:10273B00617464F0D28CE490005FF022EF1FAA0664
:10274B0070011E4A6009007D041DED60EF80FA22C6
:10275B0075C78075C5038FC48EC375C65A75C6A55C
:10276B000002000E8D2BAD077B007A00792B7531A3
:10277B00017F68121F0922538EBF53890F758B1C63
:10278B00758DA8C28FD2ABD28E22E4F5D8F5E9F5C0
:10279B00F9F5D975DA2175DB31D2DE22EF240CF590
:1027AB0082E43EF583E07F0070027F01227BFF7A9B
:1027BB002979DB7D021216A6227BFF7A2979DF7D30
:1027CB00011216A622754003E4FD7F681219B82288
:1027DB00AD077540017F681219B82253BCF8EF445E
:1027EB000842BC22C2AF228F55223006FE7FFFFF6C
:1027FB0003C003C0FFFFFE7F000000003106000096
:10280B0000000CC0FEFFFFFF00C0000000003206FE
:10281B000EF00FFC03CFC3C3FFC03EC0000000008F
:10282B003306066087E183C183C1FFFFFE7F000093
:10283B0000003406FE00FF0180018001FFFFFEFF58
:10284B00000000003506FE60FFE183C183C183FFFA
:10285B00027F000000003606FE7FFFFF83C183C1AD
:10286B0083FF027F0000000037061E001F000300DD
:10287B000300FFFFFEFF000000003806FE7FFFFF96
:10288B0083C183C1FFFFFE7F000000003906FE609D
:10289B00FFE183C183C1FFFFFE7F00000000200129
:1028AB00000000000000000000000000000000001D
:1028BB002D068001800180018001800180010000D4
:1028CB0000002E020060006000000000000000000D
:1028DB00000000005E040000783C783C0000000023
:1028EB00000000000000630810002800103F807FEC
:1028FB00C0C0C0C0C0E18061760400003C783C7869
:10290B00000000000000000000007F060000000037
:10291B00000000000000000000000000E8AEBE0058
:10292B00000020002320EE7FF43FA0904088E04081
:10293B00BF618E36821C9E1CBF37F263B0C0104045
:10294B00E7BDAE00000020802F802F80E9FFA9FF9C
:10295B00AFAAFFAAF9AAAFAAAFAAA9FFE9FFAF8056
:10296B002FC02080E697B6000000FE3FFC1F4408F6
:10297B004408FC1FFE0F0400D000900710431040CA
:10298B00FFFFFE7F10001000E997B4000000FCFF72
:10299B00F97F03000600F21FE00F22092209E21F54
:1029AB00F20F22400240FEFFFF7F0200E588860007
:1029BB00000000018000C080F040BE708F3F820F8E
:1029CB00802080408FFFBE7F7000E000C001800040
:1029DB00E697B600E5888600726F6F7400E8AEBEAE
:1029EB00E7BDAEE697B6E997B400202D202D202E3B
:1029FB00202D20630020202D202D20005634120284
:032A0B00010119AD
:00000001FF
